:020000001628C0
:0E000600831203132A088A00290882000800CA
:1000140003208A110A128000840AA90A0319AA0A71
:08002400F003031D0A28080087
:10002C00013083120313A0000330A1000230A200A0
:10003C000630A3000430A4000C30A5000830A60044
:10004C000930A700A801073083169C0006309F00DA
:10005C0086010F30831286002808203E8400000899
:10006C0086000630FB001330FC00AD30FD00FD0BAC
:10007C003D28FC0B3D28FB0B3D2800000000A80A86
:0E008C002808073C03184B28A80132284C28EE
:02400E004A2F37
:00000001FF
