:020000002828AE
:10000600013083120313A0000030A10080302706C0
:10001600F000803021067002031D132820082602F6
:10002600031C27280B30FB002630FC005D30FD004A
:10003600FD0B1B28FC0B1B28FB0B1B2800000000DC
:0A004600A00A0319A10A0928080006
:10005000831603138601831286010130A20000304B
:10006000A3008030F000803023067002031D3A2880
:100070002208053C031C502806142208A600230869
:10008000A700032006102208063CA6002308031C34
:10009000013EA701A7020320A20A0319A30A3128DF
:0400A0002D2851288E
:02400E004A2F37
:00000001FF
