:02000000AB282B
:10000600710DF80DF90D7408F8027508031C750FCB
:10001600F902F00DF10D0F30FC00710DF80DF90D20
:100026007408701C1C28F8027508031C750FF90269
:100036002128F80775080318750FF907F00DF10D5B
:10004600FC0B102870182D287408F807750803187B
:08005600750FF9070000080016
:0E005E00831203132D088A002C08820008006C
:10006C002F208A110A128000840AAC0A0319AD0AE7
:08007C00F003031D3628080003
:10008400831203137408003A031D51287508003ABB
:10009400031D5128FF30F0007F30F100AA2883129D
:1000A4000313FD01F901F801710870040319003408
:1000B40071087506FA00FA1BFD09FB01F51F672894
:1000C400F409F509F40A0319F50AF11F6E28F00979
:1000D400F109F00A0319F10A71087504FA00FA1B10
:1000E400832803207B189628FD1F0034F009F109AA
:1000F400F00A0319F10AF809F909F80A0319F90AC7
:100104000034F51F9228F11B8E287108F90070083D
:10011400F800F101F0017628F101F001F00A003451
:10012400F109F009FB0A7328F80A0319F90A74089B
:100134007802031D762875087902031D7628F901D3
:10014400F801F00A0319F10AF11F76280000FF34C0
:020154000800A1
:100156004B3083120313A0000830A1003F30A200E9
:100166000630A3005B30A4004F30A5006630A60021
:100176006D30A7007D30A8000730A9007F30AA00A7
:100186006F30AB008316860187010A30F400003019
:10019600F50083122008F0002108F10042200A3001
:1001A600F4000030F50042200A30F4000030F5007B
:1001B60042200A30F4000030F50042207808F000B2
:1001C6007908F1007008223E8400000886000710B6
:1001D6000330FC009730FD00FD0BEF28FC0BEF28E9
:1001E6000000000007140A30F4000030F500200873
:1001F600F0002108F10042200A30F4000030F5003A
:1002060042200A30F4000030F50042207808F00061
:100216007908F1007008223E8400000886008710E5
:100226000330FC009730FD00FD0B1729FC0B172946
:100236000000000087140A30F4000030F5002008A2
:10024600F0002108F10042200A30F4000030F500E9
:1002560042207808F0007908F1007008223E8400F8
:100266000008860007110330FC009730FD00FD0BE7
:100276003A29FC0B3A290000000007150A30F40061
:100286000030F5002008F0002108F100422078082F
:10029600F0007908F1007008223E8400000886000C
:1002A60087110330FC009730FD00FD0B5829FC0B2D
:0C02B6005829000000008715C8286029A6
:02400E004A2F37
:00000001FF
