:02000000D828FE
:10000600710DF80DF90D7408F8027508031C750FCB
:10001600F902F00DF10D0F30FC00710DF80DF90D20
:100026007408701C1C28F8027508031C750FF90269
:100036002128F80775080318750FF907F00DF10D5B
:10004600FC0B102870182D287408F807750803187B
:08005600750FF9070000080016
:0E005E00831203132D088A002C08820008006C
:10006C00831203132E0803178D0083168C130C14A4
:08007C0083120C08F0000800DB
:100084002F208A110A128000840AAC0A0319AD0ACF
:08009400F003031D42280800DF
:10009C00831603178C1C542800004E28831203135C
:1000AC002E0803178D0003132F0803178C008316DB
:1000BC008C130C150B08F0008B1355308D00AA30E7
:1000CC008D008C14F01B6C288B136D288B170C1166
:0200DC0008001A
:1000DE00831203137408003A031D7E287508003A34
:1000EE00031D7E28FF30F0007F30F100D7288312E9
:1000FE000313FD01F901F8017108700403190034AE
:10010E0071087506FA00FA1BFD09FB01F51F94280C
:10011E00F409F509F40A0319F50AF11F9B28F009F1
:10012E00F109F00A0319F10A71087504FA00FA1BB5
:10013E00B02803207B18C328FD1F0034F009F109F5
:10014E00F00A0319F10AF809F909F80A0319F90A6C
:10015E000034F51FBF28F11BBB287108F900700889
:10016E00F800F101F001A328F101F001F00A0034CA
:10017E00F109F009FB0AA028F80A0319F90A740814
:10018E007802031DA32875087902031DA328F9011F
:10019E00F801F00A0319F10AF11FA3280000FF3439
:0201AE00080047
:1001B00083120313A001A1013F30A2000630A30067
:1001C0005B30A4004F30A5006630A6006D30A7005C
:1001D0007D30A8000730A9007F30AA006F30AB0047
:1001E000831686018701FF30880001308312AE003C
:1001F000362070080313A000A101831203130A30F4
:10020000F4000030F5002008F0002108F1006F2014
:100210000A30F4000030F5006F207808F00079080B
:10022000F1007008223E84000008860007100330A9
:10023000FC009730FD00FD0B1B29FC0B1B29000067
:10024000000007140A30F4000030F5002008F00028
:100250002108F1006F207808F0007908F10070089B
:10026000223E84000008860087100330FC0097308F
:10027000FD00FD0B3929FC0B392900000000871413
:10028000081C6B290330FB000830FC007730FD00B0
:10029000FD0B4829FC0B4829FB0B4829081C6B293E
:1002A000A00A0319A10A0130AE002008AF004E20B9
:1002B0008030F00080308312031321067002031D8A
:1002C00063292008633C03186B29A001A1010130B8
:1002D000AE00AF014E2083120313881C992903300E
:1002E000FB000830FC007730FD00FD0B7529FC0B8E
:1002F0007529FB0B7529881C99290130A002031C64
:10030000A1030130AE002008AF004E2080308312E0
:1003100003132106F00080307002031D9129003084
:10032000200203189929A001A1010130AE00AF01FC
:060330004E20FD289A2971
:02400E004A2F37
:00000001FF
