:100000000C9462000C948A000C948A000C948A0070
:100010000C948A000C948A000C948A000C946D064F
:100020000C948A000C948A000C948A000C948A0028
:100030000C948A000C948A000C948A000C948A0018
:100040000C94CB050C948A000C943B060C9415067A
:100050000C948A000C948A000C948A000C948A00F8
:100060000C948A000C948A000000000024002700F1
:100070002A0000000000250028002B0000000000DE
:1000800023002600290004040404040404040202DA
:100090000202020203030303030301020408102007
:1000A0004080010204081020010204081020000012
:1000B0000008000201000003040700000000000027
:1000C0000000E30611241FBECFEFD8E0DEBFCDBF96
:1000D00011E0A0E0B1E0E2E6F3E102C005900D928C
:1000E000AE37B107D9F722E0AEE7B1E001C01D920B
:1000F000AD37B207E1F710E0C2E6D0E004C02197C7
:10010000FE010E94A909C136D107C9F70E9445071F
:100110000C94AF090C940000833081F028F48130F6
:1001200099F08230A9F008958730A9F08830C9F09D
:100130008430B1F4809180008F7D03C08091800075
:100140008F7780938000089584B58F7784BD08955C
:1001500084B58F7DFBCF8091B0008F778093B00006
:1001600008958091B0008F7DF9CFCF93DF93EAEBB4
:10017000F0E08491E6EAF0E0D491E2E9F0E0C491A5
:10018000CC23A1F081110E948C00EC2FF0E0EE0F47
:10019000FF1FE458FF4FA591B491EC91ED2381E04E
:1001A00090E009F480E0DF91CF91089580E090E045
:1001B000FACF1F93CF93DF93282F30E0F901E25558
:1001C000FF4F8491F901E656FF4FD491F901EA57A8
:1001D000FF4FC491CC23A9F0162F81110E948C00EF
:1001E000EC2FF0E0EE0FFF1FEE58FF4FA591B491FA
:1001F0008FB7F894EC91111108C0D095DE23DC93F1
:100200008FBFDF91CF911F910895DE2BF8CFCF9351
:10021000DF9390E0FC01E656FF4F24918A579F4FF1
:10022000FC0184918823D1F090E0880F991FFC0194
:10023000E859FF4FA591B491FC01EE58FF4FC591CD
:10024000D49161110EC09FB7F8948C91E22FE09584
:100250008E238C932881E223E8839FBFDF91CF9187
:1002600008958FB7F894EC91E22BEC938FBFF6CF03
:100270001F93CF93DF93182FEB0161E00E940701DA
:10028000209739F460E0812FDF91CF911F910C947A
:10029000D900CF3FD10511F461E0F5CFE12FF0E0B7
:1002A000E255FF4FE491E33031F140F4E130B1F039
:1002B000E230E1F0C038D1057CF7E4CFE73029F136
:1002C000E83059F1E430B1F780918000806280938A
:1002D0008000D0938B00C0938A0004C084B58068EE
:1002E00084BDC7BDDF91CF911F91089584B5806211
:1002F00084BDC8BDF7CF8091800080688093800066
:10030000D0938900C0938800EDCF8091B0008068C1
:100310008093B000C093B300E5CF8091B0008062BD
:100320008093B000C093B400DDCF3FB7F8948091C4
:100330008E0190918F01A0919001B091910126B50D
:10034000A89B05C02F3F19F00196A11DB11D3FBF0D
:10035000BA2FA92F982F8827BC01CD01620F711DDC
:10036000811D911D42E0660F771F881F991F4A95D6
:10037000D1F708958F929F92AF92BF92CF92DF9262
:10038000EF92FF924B015C010E9495016B017C0191
:100390000E9495016C197D098E099F09683E734082
:1003A00081059105A8F321E0821A9108A108B108FE
:1003B00088EEC80E83E0D81EE11CF11C8114910464
:1003C000A104B10429F7FF90EF90DF90CF90BF9088
:1003D000AF909F908F900895AF92BF92CF92DF928F
:1003E000EF92FF920F931F93CF93DF936C017B01EA
:1003F0008B01040F151FEB015E01AE18BF08C0177B
:10040000D10759F06991D601ED91FC910190F081ED
:10041000E02DC6010995892B79F7C501DF91CF91B0
:100420001F910F91FF90EF90DF90CF90BF90AF9012
:100430000895FC01538D448D252F30E0842F90E0EA
:10044000821B930B541710F0CF96089501970895CF
:10045000FC01918D828D981761F0A28DAE0FBF2F98
:10046000B11D5D968C91928D9F5F9F73928F90E0EE
:1004700008958FEF9FEF0895FC01918D828D98175D
:1004800031F0828DE80FF11D858D90E008958FEF9A
:100490009FEF0895FC01918D228D892F90E0805C63
:1004A0009F4F821B91098F739927089582E991E0EC
:1004B0000E944A0221E0892B09F420E0822F08954E
:1004C00080E090E0892B29F00E94560281110C9463
:1004D00000000895FC01A48DA80FB92FB11DA35AE7
:1004E000BF4F2C91848D90E001968F739927848F54
:1004F000A689B7892C93A089B1898C918370806477
:100500008C93938D848D981306C00288F389E02D17
:1005100080818F7D80830895EF92FF920F931F93C8
:10052000CF93DF93EC0181E0888F9B8D8C8D9813A6
:100530001AC0E889F989808185FF15C09FB7F894B2
:10054000EE89FF896083E889F989808183708064FE
:1005500080839FBF81E090E0DF91CF911F910F9149
:10056000FF90EF900895F62E0B8D10E00F5F1F4F58
:100570000F731127E02E8C8D8E110CC00FB607FC67
:10058000FACFE889F989808185FFF5CFCE010E94F5
:100590006A02F1CFEB8DEC0FFD2FF11DE35AFF4FF7
:1005A000F0829FB7F8940B8FEA89FB898081806283
:1005B000CFCFCF93DF93EC01888D8823B9F0AA8940
:1005C000BB89E889F9898C9185FD03C0808186FD0E
:1005D0000DC00FB607FCF7CF8C9185FFF2CF80815D
:1005E00085FFEDCFCE010E946A02E9CFDF91CF9166
:1005F0000895089590E080E0089560E086E00E940C
:10060000D90060E089E00E94D90060E08AE00E94A1
:10061000D90060E08BE00C94D900CF93DF9360E0C9
:1006200086E00E94D900C0910001D0910101BE0175
:1006300089E00E94380160E08AE00E94D900BE0192
:100640008BE0DF91CF910C943801CF93DF93C09171
:100650000001D0910101BE0186E00E94380160E0F6
:1006600089E00E94D900BE018AE00E94380160E062
:100670008BE0DF91CF910C94D900CF93DF93C091A1
:100680000001D0910101BE0186E00E94380160E0C6
:1006900089E00E94D90060E08AE00E94D900BE0192
:1006A0008BE0DF91CF910C943801CF93DF9360E022
:1006B00086E00E94D900C0910001D0910101BE01E5
:1006C00089E00E943801BE018AE00E94380160E0A2
:1006D0008BE0DF91CF910C94D9008F929F92AF92D3
:1006E000BF920F931F93CF93DF93CDB7DEB7A19740
:1006F0000FB6F894DEBF0FBECDBF19A2423008F48A
:100700004AE08E010F5D1F4F842E912CB12CA12C3D
:10071000A50194010E948709E62FB901CA01EA30B8
:1007200044F5E05DD801EE938D01232B242B252B7E
:1007300079F790E080E0109769F0FD0101900020CA
:10074000E9F73197AF014A1B5B0BBD018FE292E0E5
:100750000E94EC01A1960FB6F894DEBF0FBECDBF8C
:10076000DF91CF911F910F91BF90AF909F908F908D
:100770000895E95CD7CFFC0101900020E9F731979B
:10078000AF01481B590BBC018FE292E00C94EC01C5
:100790000F931F93CF93DF93EC01AA85BB858C91B8
:1007A0009C81892B8C93AE81BF819C918C8180959B
:1007B00089238C938BE090E00197F1F7AE81BF81A4
:1007C0008C919C81892B8C9383E290E00197F1F7C7
:1007D000AE81BF819C918C81809589238C93AA8561
:1007E000BB859C918C81809589238C93A885B98544
:1007F0008C919D81892339F090E080E0DF91CF9149
:100800001F910F9108950E949501AB01BC018C8549
:100810009D85B0E0A0E08855994EAF4FBF4F840F43
:10082000951FA61FB71F8E879F87A88BB98BE8855A
:10083000F98580819D81892361F40E9495010E854F
:100840001F8528893989061717072807390778F778
:10085000D3CF0E9495012C853D85620F731F811DAA
:10086000911D6E877F87888B998BE885F9858081BC
:100870009D81892361F00E9495010E851F8528893D
:100880003989061717072807390778F7B5CF0E9467
:1008900095012C853D85A901455051092E853F853F
:1008A000FA01E21BF30BCF01860F971FA7CFCF935F
:1008B000DF93EC0160E08E810E94D90061E08E81BF
:1008C0000E94D90060E08E810E94D9008BE891E0FF
:1008D0000197F1F7DF91CF910895CF92DF92EF92D8
:1008E000FF920F931F93CF93DF936C017C0187E0FE
:1008F000E80EF11CD0E0C0E0062F10E0B8010C2E8D
:1009000002C0759567950A94E2F76170F7018191CD
:100910007F010E94D9002196C430D10579F7C60124
:10092000DF91CF911F910F91FF90EF90DF90CF90CB
:100930000C945704CF92DF92EF92FF920F931F9384
:10094000CF93DF93EC01F62E642F8C810E94D900A7
:100950008D818F3F19F060E00E94D9000F2D10E0CB
:100960008F8584FF25C06E0187E0C80ED11CF12C55
:10097000E12CB8010E2C02C0759567950A94E2F738
:100980006170F60181916F010E94D900FFEFEF1AAB
:10099000FF0A88E0E816F10461F7CE01DF91CF91FC
:1009A0001F910F91FF90EF90DF90CF900C94570420
:1009B000B80184E0759567958A95E1F7CE010E94AC
:1009C0006D046F2DCE01DF91CF911F910F91FF909C
:1009D000EF90DF90CF900C946D0440E0682F8FE291
:1009E00092E00C949A0481E00E94ED048BE39FE175
:1009F0000197F1F70895CF93DF93823029F4909116
:100A00003E02986090933E0280934202109243020D
:100A100080E48093440280E18093450280E58093E6
:100A2000460261E0809133020E9407018091340206
:100A30008F3F19F061E00E94070161E0809135026B
:100A40000E940701CFE2D2E09E012F5232408091F6
:100A50003E0284FD0BC084E090E021962817390700
:100A600044F461E08E810E940701EECF88E090E0BF
:100A7000F4CF8BE39DE00197F1F760E080913302C2
:100A80000E94D90060E0809135020E94D9008091D7
:100A900034028F3F19F060E00E94D90080913E023D
:100AA00084FD34C063E08FE292E00E946D04CBE4E9
:100AB000D6E4CE010197F1F763E08FE292E00E9465
:100AC0006D042197F1F763E08FE292E00E946D04DC
:100AD00083E592E00197F1F762E08FE292E00E94F5
:100AE0006D0480913E0280620E94ED0484E0809358
:100AF0003F028CE00E94ED040E94F30482E08093A8
:100B0000400286E0DF91CF910C94ED0480620E9458
:100B1000ED048BE496E40197F1F780913E02806248
:100B20000E94ED0483E592E00197F1F780913E0287
:100B300080620E94ED04D5CF41E00E949A0481E0DA
:100B400090E00895CF92DF92EF92FF926C01990F9F
:100B5000EE08FF08F7FE16C041E06DE28FE292E07A
:100B60000E949A0466277727CB016C197D098E09AC
:100B70009F094AE00E946D030196FF90EF90DF907D
:100B8000CF9008954AE0C701B601FF90EF90DF9043
:100B9000CF900C946D031F920F920FB60F921124F9
:100BA0002F933F938F939F93AF93BF9380918A012D
:100BB00090918B01A0918C01B0918D0130918901B0
:100BC00023E0230F2D3758F50196A11DB11D209369
:100BD000890180938A0190938B01A0938C01B0933B
:100BE0008D0180918E0190918F01A0919001B09123
:100BF00091010196A11DB11D80938E0190938F01EB
:100C0000A0939001B0939101BF91AF919F918F916B
:100C10003F912F910F900FBE0F901F90189526E8CF
:100C2000230F0296A11DB11DD2CF1F920F920FB6B6
:100C30000F9211242F933F934F935F936F937F9362
:100C40008F939F93AF93BF93EF93FF9382E991E0CC
:100C50000E946A02FF91EF91BF91AF919F918F9196
:100C60007F916F915F914F913F912F910F900FBEA8
:100C70000F901F9018951F920F920FB60F9211248C
:100C80002F938F939F93EF93FF93E091A201F091A5
:100C9000A3018081E091A801F091A90182FD1BC010
:100CA00090818091AB018F5F8F732091AC0182178F
:100CB00041F0E091AB01F0E0EE56FE4F958F80934E
:100CC000AB01FF91EF919F918F912F910F900FBEEC
:100CD0000F901F9018958081F4CF1F920F920FB63E
:100CE0000F9211242F933F934F935F936F937F93B2
:100CF0008F939F93AF93BF93EF93FF93F0E0E0E068
:100D00000995FF91EF91BF91AF919F918F917F9145
:100D10006F915F914F913F912F910F900FBE0F9068
:100D20001F901895DC0170E0FB01E656FF4FE4913F
:100D30001496EC93149750E0FA01E656FF4FE491B5
:100D40001596EC9315976A577F4FFB018491E82F16
:100D5000F0E0EE0FFF1FEE58FF4F8591949117962C
:100D60009C938E931697FA01EA57FF4FE491F0E0B7
:100D7000EE0FFF1FE458FF4F8591949119969C93B5
:100D80008E931897FB016491E62FF0E0EE0FFF1FA2
:100D9000E859FF4F859194911B969C938E931A97D7
:100DA0002F5F3F4F49E3429FC001439F900D1124A5
:100DB0008E38FFE69F0710F08DE89FE61D969C9306
:100DC0008E931C970895E2E9F1E01382128288EE77
:100DD00093E0A0E0B0E084839583A683B78386E0A8
:100DE00091E09183808385EC90E09587848784EC03
:100DF00090E09787868780EC90E0918B808B81ECE8
:100E000090E0938B828B82EC90E0958B848B86ECC8
:100E100090E0978B868B118E128E138E148E28EC99
:100E200030E042E063E08BE692E00E94920628EC1C
:100E300030E044E065E089E592E00E94920628EC0B
:100E400030E047E068E087E492E00E949206EFE23B
:100E5000F2E01382128288E191E0918380838EE038
:100E600084838FEF85838FE0868380E1878381E1B0
:100E7000808782E1818783E18287138614861586C5
:100E80001686178681E00C94FB04789484B5826002
:100E900084BD84B5816084BD85B5826085BD85B51E
:100EA000816085BD80916E00816080936E0010929C
:100EB0008100809181008260809381008091810017
:100EC00081608093810080918000816080938000A8
:100ED0008091B10084608093B1008091B000816006
:100EE0008093B00080917A00846080937A00809132
:100EF0007A00826080937A0080917A00816080938A
:100F00007A0080917A00806880937A001092C10004
:100F100061E086E00E94070161E089E00E9407012C
:100F200061E08AE00E94070161E08BE00E94070116
:100F300060E08CE00E94070161E08DE00E94070103
:100F400060E086E00E94D90060E089E00E94D9005C
:100F500060E08AE00E94D90060E08BE00E94D90046
:100F600060E08DE00E94D90082E00E94FB0480E2F4
:100F700091E00E94BB03E091A201F091A30182E005
:100F80008083E0919E01F0919F011082E091A00189
:100F9000F091A1018FEC80831092AA01E091A6014B
:100FA000F091A70186E08083E091A401F091A50172
:100FB000808180618083E091A401F091A50180810E
:100FC00088608083E091A401F091A5018081806810
:100FD0008083E091A401F091A50180818F7D8083C1
:100FE00060ED77E080E090E00E94BA0129E3422EB4
:100FF000512C612C712C0DEC10E0EE24EA94F12CB4
:101000009BE9C92ED12C80E0A82E80E0B82E0E944A
:10101000B500892B09F08BC00E94F30489E291E0AE
:101020000E94BB03CAE282E991E00E944A021816BC
:10103000190634F482E991E00E942802809382012B
:1010400080918201863409F443C04CF5823309F45F
:1010500064C0CCF4813309F45BC00E94B5000197F1
:1010600011F70E94FD0264E670E080E090E00E94CB
:10107000BA01A114B10459F20E945602882319F250
:101080000E940000BDCF833309F44CC0823429F79D
:101090000E943D030E94F3048DE391E01FC082355E
:1010A00049F16CF48C34F9F08035B9F661E08DE0EB
:1010B0000E94D9000E94F30486E591E00FC08335B9
:1010C00001F1803751F660E08DE00E94D90008C040
:1010D0000E9455030E94F30485E391E00E94BB0344
:1010E000C0938201BACF0E9425030E94F30486E4D4
:1010F00091E0F4CF0E940D030E94F3048BE491E091
:10110000EDCF0E94FD020E94F30481E591E0E6CF5D
:10111000D0920101C0920001E3CF1093010100932E
:101120000001DECFF0920101E0920001D9CF0E94D0
:10113000F3048EE591E00E94BB0366E470E080E07A
:1011400090E00E94BA018BE692E00E94C803BC01C5
:1011500090E080E0A30192010E94870921153105EA
:1011600011F42AEF30E0309388012093870166E480
:1011700070E080E090E00E94BA0189E592E00E9470
:10118000C803BC0190E080E0A30192010E9487099E
:101190002115310511F42AEF30E0309386012093B8
:1011A000850166E470E080E090E00E94BA0187E487
:1011B00092E00E94C803BC0190E080E0A30192018C
:1011C0000E9487092115310511F42AEF30E0309390
:1011D0008401209383010E94F3048DE691E00E9434
:1011E000BB0380918701909188010E94A20580E74E
:1011F00091E00E94BB0384E791E00E94BB038091D1
:101200008501909186010E94A20587E791E00E94E6
:10121000BB03E0914202E23008F044C0E150F0E04C
:10122000E15DFD4F848980680E94ED048AE791E0CA
:101230000E94BB0380918301909184010E94A205CA
:1012400087E791E00E94BB032091850130918601E0
:101250008091830190918401253131050CF042C0C9
:1012600020918701309188012817390744F5459767
:10127000DCF425313105C4F40E94FD0268EC70E015
:1012800080E090E00E94BA010E943D0360ED77E0AB
:1012900080E090E00E94BA010E94B500892B09F01D
:1012A0004CCFDFCEE1E0BBCF0E943D0364EF71E0A5
:1012B00080E090E00E94BA010E940D03E7CF821700
:1012C000930754F745971CF425313105ACF20E9481
:1012D0003D0364EF71E080E090E00E94BA010E945B
:1012E0002503D4CF40973CF40E94250364EF71E0BE
:1012F00080E090E0CFCF8091870190918801409766
:101300001CF40E940D03F2CF0E945503C5CFA1E249
:101310001A2EAA1BBB1BFD010DC0AA1FBB1FEE1F6F
:10132000FF1FA217B307E407F50720F0A21BB30BBA
:10133000E40BF50B661F771F881F991F1A9469F736
:1013400060957095809590959B01AC01BD01CF0192
:101350000895EE0FFF1F0590F491E02D0994F89485
:02136000FFCFBD
:10136200FF00000000008C02EC011902D9024A02BF
:1013720028023C02000000009C05EC01FA02F9027E
:1013820057656C636F6D6521004D616E75616C20F0
:101392004D6F646500466F727761726400426163EB
:1013A2006B77617264004C65667400526967687499
:1013B2000053746F700050756D70204F4E00417570
:1013C200746F6D61746963204D6F6465004C3D00FC
:0E13D200636D20004D3D00636D00523D000034
:00000001FF
