:020000009B293A
:10000600710DF80DF90D7408F8027508031C750FCB
:10001600F902F00DF10D0F30FC00710DF80DF90D20
:100026007408701C1C28F8027508031C750FF90269
:100036002128F80775080318750FF907F00DF10D5B
:10004600FC0B102870182D287408F807750803187B
:08005600750FF9070000080016
:10005E00831203137408003A031D3E287508003AF4
:10006E00031D3E28FF30F0007F30F10097288312E9
:10007E000313FD01F901F80171087004031900342E
:10008E0071087506FA00FA1BFD09FB01F51F5428CD
:10009E00F409F509F40A0319F50AF11F5B28F009B2
:1000AE00F109F00A0319F10A71087504FA00FA1B36
:1000BE00702803207B188328FD1F0034F009F109F6
:1000CE00F00A0319F10AF809F909F80A0319F90AED
:1000DE000034F51F7F28F11B7B287108F90070088A
:1000EE00F800F101F0016328F101F001F00A00348B
:1000FE00F109F009FB0A6028F80A0319F90A7408D5
:10010E007802031D632875087902031D6328F9011F
:10011E00F801F00A0319F10AF11F63280000FF34F9
:02012E000800C7
:0E0130008312031331088A0030088200080091
:10013E0083120313B401B50180303506F000803010
:10014E007002031DAC28A03034020318F3280A30C5
:10015E00F4000030F5003608F0003708F1002F20CB
:10016E000A30F4000030F5002F207808F0007908EE
:10017E00F1007008203E840000088600071003304E
:10018E00FC009730FD00FD0BCA28FC0BCA280000AE
:10019E00000007140A30F4000030F5003608F000B5
:1001AE003708F1002F207808F0007908F100700868
:1001BE00203E84000008860087100330FC00973034
:1001CE00FD00FD0BE828FC0BE8280000000087145A
:0A01DE00B40A0319B50AA3280800AB
:1001E80098208A110A128000840AB00A0319B10AF9
:0801F800F003031DF4280800C8
:100200000A3083120313F4000030F5002A08F000CE
:100210002B08F1002F200A30F4000030F5002F20C9
:100220007808F0007908F1007008203E840000088A
:10023000860007100330FC009730FD00FD0B1E29DF
:10024000FC0B1E290000000007140A30F4000030E7
:10025000F5002A08F0002B08F1002F207808F000A4
:100260007908F1007008203E84000008860087109D
:100270000330FC009730FD00FD0B3C29FC0B3C29B2
:10028000000000008714081C63290330FB000830BD
:10029000FC007730FD00FD0B4B29FC0B4B29FB0BC1
:1002A0004B29081C6329AA0A0319AB0A8030F00005
:1002B00080302B067002031D5F292A08633C031857
:1002C0006329AA01AB01881C84290330FB00083094
:1002D000FC007730FD00FD0B6B29FC0B6B29FB0B41
:1002E0006B29881C84290130AA02031CAB038030CF
:1002F0002B06F00080307002031D802900302A0296
:1003000003188429AA01AB01081D99290330FB00B9
:100310000830FC007730FD00FD0B8C29FC0B8C298C
:10032000FB0B8C29081D99292A08F0002B08F100E5
:060330009A2900290800D3
:100336003F3083120313A0000630A1005B30A200F9
:100346004F30A3006630A4006D30A5007D30A600B6
:100356000730A7007F30A8006F30A900AA01AB01C3
:10036600AC01AD01AE01AF01831686018701FF30F6
:10037600880000217008AC007108AD00AA01AB012D
:1003860000217008AE007108AF002C08B2002D08DD
:10039600B30080302F06F000803033067002031D54
:1003A600D62932082E02031CE1293208B60033088A
:1003B600B7009F20B20A0319B30ACC29C829E2293B
:02400E004A2F37
:00000001FF
