:020000001628C0
:0E0006008312031331088A00300882000800BC
:1000140003208A110A128000840AB00A0319B10A63
:08002400F003031D0A28080087
:10002C0083120313A001FF30A100FF30A20018308F
:10003C00A3001830A400FF30A500FF30A600A701D4
:10004C008030A8004030A9002030AA001030AB004E
:10005C000830AC000430AD000230AE000130AF000F
:10006C008316870188018312B201B30180303306F5
:10007C00F00080307002031D45280830320203184E
:10008C005F283208283E8400000888003208203E91
:10009C008400000887000330FC009730FD00FD0B46
:1000AC005528FC0B552800000000B20A0319B30AAE
:0600BC003C2839286028F1
:02400E004A2F37
:00000001FF
