:02000000B72D1A
:06000600000000000800EC
:10000C000F3083120313FC004730FD00FD0B0C284E
:0A001C00FC0B0C2800000000080097
:0E002600213083120313FD00FD0B1728080084
:100034007B15FB1F24280130F300F201F101F001CC
:08004400FA0DF20CFF30080078
:10004C00FB14FB1F3028FF30F300F200F100F0002E
:08005C00FA0DF20CFF30080060
:0E006400F201F101F001F801F3010030080093
:08007200FA1FF2130030080030
:10007A0083120313D91B4328861244288616591B58
:10008A004828061249280616D91A4D2886114E28DC
:10009A008615591A52280611532806154318572847
:1000AA00061458280610861403208610D9195F28CA
:1000BA0086126028861659196428061265280616BB
:1000CA00D918692886116A28861559186E280611C2
:1000DA006F28061543187328061474280610861408
:1000EA0003208610431C7B2806207C281320080046
:1000FA0083120313FA017308031D7A147708031D88
:10010A00FA147A080319C928033A031994287A18A1
:10011A009128F61FC728C528F21FC528C7287208C4
:10012A008039FA00F21376088039F6137A06031931
:10013A00A2287A080319C528C72877087302031961
:10014A00A928031CBD28C128760872020319B02801
:10015A00031CBD28C128750871020319B728031C9E
:10016A00BD28C128740870020319C9280318C128B8
:10017A00FA080319C728C528FA080319C528C72881
:10018A0003140800031008000314031508000800EC
:06019A00FB15FF30080018
:1001A00083120313FB017308031D77080319272922
:1001B00072087606FA007708F3077E30031CE428FD
:1001C000F30203182A29E728F302031C2D297208D9
:1001D000F8007108FC007008FD00F817F61703100E
:1001E000F201F101F0011830A0007D1C0129740812
:1001F000F00775080318750FF10776080318760FD6
:10020000F207F20CF10CF00CF80CFC0CFD0C0310D6
:10021000A00BF528F21B1129F80DF00DF10DF20DD0
:10022000F3037B1B701C2329F81F2329F00A0319F1
:10023000F10A0319F20A031D2329F20CF10CF00C48
:10024000F30A03192A29FA1FF21300302F2901306B
:1002500032202F29023026202F2904301A200000B6
:02026000080094
:100262000E3083120313FD00FD0B35290000080038
:1002720083120313FD01F801700803190034740698
:10028200FA00FA1BFD09FB01F41F4929F409F40ADB
:10029200F01F4D29F009F00A70087404FA00FA1BE5
:1002A20071297408F802F00D700DF80D7408F80742
:1002B200F00D0630FC00700DF80D74087018F8028D
:1002C200701CF807F00DFC0B5C29701CF8077B18FA
:1002D2007F29FD1F0034F009F00AF809F80A0034FA
:1002E200F41F7C29F01B79297008F800F0016A29B3
:1002F200F001F00A0034F009FB0A5229F80A7408E6
:100302007802031D6A29F801F00AF01F6A29FF34F6
:020312000800E1
:100314008312031343105708D9003D2043140800E7
:10032400831203135708F2007208F100F20A580806
:10033400F000D80A700884000008F00071088400F6
:10034400700880007108840000080319AA299629FE
:060354005708F00008004C
:10035A00A0017208031DC2297108F2007008F10099
:10036A00F001A0157208031DC2297108F200F101FB
:10037A00A011201672080319D0292008F302031DC0
:10038A00031CD4290310F21BD829F00DF10DF20D2C
:10039A00F30BC829D4290130FC003220DB290230B2
:0E03AA00FC001A20DB290430FC00392008007A
:0E03B8008312031345088A00440882000800DF
:1003C60083120313D501D6014A08D1004B08D20087
:1003D6004C08D3004D08D4005408FF3A031DFD29EC
:1003E6005308FF3A031DFD295208FF3A031DFD2954
:1003F6005108FF3A031D072A4E08D7002130D800BE
:1004060092210330F000E02B0130CF00D31F162AD3
:1004160080305306F0007008D300CF0A4E088400DF
:100426002D308000CE0A0030F0005406031D252A28
:1004360070085306031D252A70085206031D252A37
:100446005108003A031D2E2A4E08D7002630D80040
:100456009221F001E02B5408FF3A031D3C2A530871
:10046600003A031D3C2A5208003A031D3C2A510853
:10047600003A031D462A4E08D7002830D80092219C
:100486004F08F000E02B0030F4000030F50000309B
:10049600F6007F30F7005108F0005208F1005308CB
:1004A600F2005408F3007D20013003180030F000FC
:1004B60070080319792A5108F0005208F100530810
:1004C600F2005408F3000030F4000030F50020304C
:1004D600F6008230F700D0207008D1007108D200F3
:1004E6007208D3007308D400D603462A0030F400FD
:1004F6000030F5002030F6008230F7005108F00099
:100506005208F1005308F2005408F3007D20013030
:10051600031C0030F00070080319AC2A5108F000E3
:100526005208F1005308F2005408F300CD30F400ED
:10053600CC30F5004C30F6007B30F700D020700848
:10054600D1007108D2007208D3007308D400D60A0D
:10055600792AFF305105F800FF305205F9007F3047
:100566005305FA0000305405FB007808F4007908BA
:10057600F5007A08F6007B08F700F40DF50DF60D88
:10058600F70D741000305105F00000305205F100EF
:1005960000305305F200FF305405F3007008D10017
:1005A6007108D2007208D3007308D400740851048D
:1005B600F00075085204F10076085304F20077083B
:1005C6005404F3007008D1007108D2007208D300F9
:1005D6007308D4007F305402F0007008D000013058
:1005E600D4007008F4005108F0005208F1005308D6
:1005F600F2005408F30074080319082BF00DF10DEE
:10060600F20DF30D7010FF3EFF2A7008D10071083D
:10061600D2007208D3007308D4005408303EF000AC
:100626004E08840070088000CE0A80305606F0001E
:100636008030013A7002031C292B8030063AF00004
:10064600803056067002031C292B302B4E0884007E
:100656002E308000CE0A0130D5000630D00050087A
:10066600003A03198E2BD4015108F0005208F1000C
:100676005308F2005408F300F00DF10DF20DF30DDE
:100686007010F00DF10DF20DF30D70105108F0071A
:1006960052080318520FF10753080318530FF207B5
:1006A60054080318540FF3077008D1007108D200DC
:1006B6007208D3007308D4005108F0005208F10004
:1006C6005308F2005408F300F00DF10DF20DF30D8E
:1006D60070107008D1007108D2007208D300730838
:1006E600D4005408303EF0004E08840070088000A4
:1006F600CE0A5508003A031D8C2BD6035608003A3D
:10070600031D8C2B4E0884002E308000CE0A01304B
:10071600D500D003322BFF304E0784000008303A54
:10072600031D972BCE038E2BFF304E078400000847
:100736002E3A031D9F2BCE035608003A0319DC2BD5
:100746004E08840065308000CE0A80305606F000E0
:100756008030003A70020318B82B4E0884002D3002
:100766008000CE0A5608003CD6005608D0008030DD
:10077600093AF0008030560670020318CE2B0A3074
:10078600F4005008F00039213030F0074E0884009C
:1007960070088000CE0A0A30F4005008F0003921B3
:1007A6007808F0003030F0074E08840070088000AA
:0C07B600CE0A4E0884008001F00108000B
:1007C200F32B803083120313CA00062CC030CA00F8
:1007D200062C9430CA00062CD430CA00062C803075
:1007E200CA00062C831203134A08013A0319E22BAA
:1007F2004A08023A0319E72B4A08033A0319EA2B7B
:100802004A08043A0319ED2BF02B4B03F0004A0877
:10081200F0077008CA0043147008D9003D20431045
:0A0822004C08D9003D2043140800E3
:10082C00282C803083120313CA003B2CC030CA0022
:10083C003B2C9430CA003B2CD430CA003B2C80306B
:10084C00CA003B2C831203134A08013A0319172CD4
:10085C004A08023A03191C2C4A08033A03191F2CA4
:10086C004A08043A0319222C252C4B03F0004A08A1
:10087C00F0077008CA007008D9003D204310CD0164
:10088C004D084C07840000080319542C4D084C07E4
:10089C0084000008D7008A21CD0A462C4314080096
:1008AC00831203137408003A031D712C7508003A67
:1008BC00031D712C7608003A031D712C7708003A41
:1008CC00031D712CFF30F000FF30F1007F30F2007F
:1008DC00FF30F3000C2D8312031377080319002D3E
:1008EC0073080319032D720876068039FA00F21783
:1008FC00F617A0017208F8007108FC007008FD00E2
:10090C007408FD027508031C750FFC027608031CA5
:10091C00760FF802F801FC01FD01031C9C2C03105E
:10092C00F20CF10CF00CF80C0130A0007708F3027B
:10093C00031CA62C7E302007F3070318062DAB2CC6
:10094C007E302007F307031C092D1830FA07FD0D24
:10095C00FC0DF80DF00DF10DF20DA00D7408F00268
:10096C007508031C750FF1027608031C760FF20252
:10097C00760DA004201CC42C7D14CF2C7408F00719
:10098C0075080318750FF10776080318760AF20735
:10099C007D10FA031F307A05031DAD2C7B1B7D1CCB
:1009AC00F62C0310F00DF10DF20DA00D7408F002F1
:1009BC007508031C750FF1027608031C760FF20202
:1009CC00760D20040139FD070318FC0A0319F80AF7
:1009DC00031DF62CF80CFC0CFD0CF30A0319062D68
:1009EC00FA1FF8137808F2007C08F1007D08F0007B
:1009FC0000300B2D0130CD200B2D023032200B2D71
:0E0A0C00043026200B2D08301A2000000800B0
:100A1A0083120313CB014B084A0784000008031909
:100A2A001E2D4B084A0784000008D7008A21CB0AEA
:040A3A00102D080073
:100A3E00DC218A110A128000840AC40A0319C50A2D
:080A4E00F003031D1F2D080039
:100A560083160313861006100611861106128612D7
:100A660083128610061086120612861106110620BB
:100A760006200620861506158614032086100620F5
:100A8600861403208610062086140320861006206E
:100A9600061186140320861006208614032086106D
:100AA60086118616861403208610062086120615E1
:100AB600861403208610061186140320861006204D
:100AC6008614032086100615861403208610062039
:100AD6000611861403208610861606168615061538
:0C0AE6008614032086100620431408002C
:100AF200831203137008F8007108F000F101F2018B
:100B0200F301FB01FC019630F300FA017008F100D9
:0C0B12007808F000F801F201AD210800A5
:100B1E00831203139F01C0309F042509F000700853
:100B2E0083169F051F179F1783124A08F000F00DBA
:100B3E007010F00D7010F00D701070089F041F14DF
:100B4E0031211F151F1DAD2D0000A92D1F101E08D0
:100B5E00F100F00183161E08F0040030F1040800C5
:100B6E002C26831603138601FF30850080309F00EC
:100B7E002B250130D9003D200C30D9003D20CA0173
:100B8E008F257925F630F4002830F5001C30F6005C
:100B9E008130F700D0200030F4000030F500203016
:100BAE00F6008230F70056247008C6007108C700A0
:100BBE007208C8007308C9000130CA000130CB00AA
:100BCE002C30CC0016244608CA004708CB00480833
:100BDE00CC004908CD003430CE00E3213430CA00B9
:100BEE000D250130CA000F30CB00DF30CC00E123E1
:0A0BFE003230CA000D25C62D032E6B
:100C580021308400223083120313F0000930C400CD
:080C68000630C5001F2508003D
:080C12004E3461344E3400340D
:020C1A000F3495
:040C1C00303400343C
:080C200049344E34463400341F
:0C0C2800543465346D3470343D340034B5
:040C34004334003411
:100C3800003400340034003400340034003400340C
:0E0C4800003400340034003400340034003432
:02400E004A2F37
:00000001FF
