:0200000069296C
:10000600710DF80DF90D7408F8027508031C750FCB
:10001600F902F00DF10D0F30FC00710DF80DF90D20
:100026007408701C1C28F8027508031C750FF90269
:100036002128F80775080318750FF907F00DF10D5B
:10004600FC0B102870182D287408F807750803187B
:08005600750FF9070000080016
:10005E00831203137408003A031D3E287508003AF4
:10006E00031D3E28FF30F0007F30F10097288312E9
:10007E000313FD01F901F80171087004031900342E
:10008E0071087506FA00FA1BFD09FB01F51F5428CD
:10009E00F409F509F40A0319F50AF11F5B28F009B2
:1000AE00F109F00A0319F10A71087504FA00FA1B36
:1000BE00702803207B188328FD1F0034F009F109F6
:1000CE00F00A0319F10AF809F909F80A0319F90AED
:1000DE000034F51F7F28F11B7B287108F90070088A
:1000EE00F800F101F0016328F101F001F00A00348B
:1000FE00F109F009FB0A6028F80A0319F90A7408D5
:10010E007802031D632875087902031D6328F9011F
:10011E00F801F00A0319F10AF11F63280000FF34F9
:02012E000800C7
:0E013000831203132D088A002C088200080099
:10013E0083120313AE01AF0180302F06F000803022
:10014E0031067002031DAD2830082E020318C12897
:10015E000B30FB002630FC005D30FD00FD0BB5289A
:10016E00FC0BB528FB0BB52800000000AE0A0319E6
:06017E00AF0AA3280800EF
:1001840098208A110A128000840AAC0A0319AD0A65
:08019400F003031DC22808005E
:10019C000A3083120313F4000030F5002A08F00033
:1001AC002B08F1002F200A30F4000030F5002F202E
:1001BC007808F0007908F1007008203E84000008EF
:1001CC00860007100330FC009730FD00FD0BEC2877
:1001DC00FC0BEC280000000007140A30F40000307F
:1001EC00F5002A08F0002B08F1002F207808F00009
:1001FC007908F1007008203E840000088600871002
:10020C000330FC009730FD00FD0B0A29FC0B0A297A
:10021C00000000008714081C31290330FB00083053
:10022C00FC007730FD00FD0B1929FC0B1929FB0B89
:10023C001929081C3129AA0A0319AB0A8030F000CD
:10024C0080302B067002031D2D292A08633C0318ED
:10025C003129AA01AB01881C52290330FB0008305C
:10026C00FC007730FD00FD0B3929FC0B3929FB0B09
:10027C003929881C52290130AA02031CAB03803097
:10028C002B06F00080307002031D4E2900302A022C
:10029C0003185229AA01AB01081D67290330FB0082
:1002AC000830FC007730FD00FD0B5A29FC0B5A2955
:1002BC00FB0B5A29081D67292A08F0002B08F100AE
:0602CC006829CE2808009D
:1002D2003F3083120313A0000630A1005B30A2005E
:1002E2004F30A3006630A4006D30A5007D30A6001B
:1002F2000730A7007F30A8006F30A900AA01AB0128
:10030200831686018701FF308800CE207008AA007C
:100312007108AB0087172A08B0002B08B1009F2094
:1003220087132A08B0002B08B1009F208B29982937
:02400E004A2F37
:00000001FF
